{
  "_format": "hh-sol-artifact-1",
  "contractName": "MyLegacyNFT",
  "sourceName": "contracts/MyLegacyNFT.sol",
  "abi": [
    {
      "inputs": [],
      "stateMutability": "nonpayable",
      "type": "constructor"
    },
    {
      "anonymous": false,
      "inputs": [
        {
          "indexed": true,
          "internalType": "address",
          "name": "owner",
          "type": "address"
        },
        {
          "indexed": true,
          "internalType": "address",
          "name": "approved",
          "type": "address"
        },
        {
          "indexed": true,
          "internalType": "uint256",
          "name": "tokenId",
          "type": "uint256"
        }
      ],
      "name": "Approval",
      "type": "event"
    },
    {
      "anonymous": false,
      "inputs": [
        {
          "indexed": true,
          "internalType": "address",
          "name": "owner",
          "type": "address"
        },
        {
          "indexed": true,
          "internalType": "address",
          "name": "operator",
          "type": "address"
        },
        {
          "indexed": false,
          "internalType": "bool",
          "name": "approved",
          "type": "bool"
        }
      ],
      "name": "ApprovalForAll",
      "type": "event"
    },
    {
      "anonymous": false,
      "inputs": [
        {
          "indexed": false,
          "internalType": "address",
          "name": "sender",
          "type": "address"
        },
        {
          "indexed": false,
          "internalType": "uint256",
          "name": "tokenId",
          "type": "uint256"
        }
      ],
      "name": "NewLegacyNFTMinted",
      "type": "event"
    },
    {
      "anonymous": false,
      "inputs": [
        {
          "indexed": true,
          "internalType": "address",
          "name": "from",
          "type": "address"
        },
        {
          "indexed": true,
          "internalType": "address",
          "name": "to",
          "type": "address"
        },
        {
          "indexed": true,
          "internalType": "uint256",
          "name": "tokenId",
          "type": "uint256"
        }
      ],
      "name": "Transfer",
      "type": "event"
    },
    {
      "inputs": [
        {
          "internalType": "address",
          "name": "to",
          "type": "address"
        },
        {
          "internalType": "uint256",
          "name": "tokenId",
          "type": "uint256"
        }
      ],
      "name": "approve",
      "outputs": [],
      "stateMutability": "nonpayable",
      "type": "function"
    },
    {
      "inputs": [
        {
          "internalType": "address",
          "name": "owner",
          "type": "address"
        }
      ],
      "name": "balanceOf",
      "outputs": [
        {
          "internalType": "uint256",
          "name": "",
          "type": "uint256"
        }
      ],
      "stateMutability": "view",
      "type": "function"
    },
    {
      "inputs": [
        {
          "internalType": "uint256",
          "name": "tokenId",
          "type": "uint256"
        }
      ],
      "name": "getApproved",
      "outputs": [
        {
          "internalType": "address",
          "name": "",
          "type": "address"
        }
      ],
      "stateMutability": "view",
      "type": "function"
    },
    {
      "inputs": [
        {
          "internalType": "address",
          "name": "owner",
          "type": "address"
        },
        {
          "internalType": "address",
          "name": "operator",
          "type": "address"
        }
      ],
      "name": "isApprovedForAll",
      "outputs": [
        {
          "internalType": "bool",
          "name": "",
          "type": "bool"
        }
      ],
      "stateMutability": "view",
      "type": "function"
    },
    {
      "inputs": [],
      "name": "makeALegacyNFT",
      "outputs": [],
      "stateMutability": "nonpayable",
      "type": "function"
    },
    {
      "inputs": [],
      "name": "name",
      "outputs": [
        {
          "internalType": "string",
          "name": "",
          "type": "string"
        }
      ],
      "stateMutability": "view",
      "type": "function"
    },
    {
      "inputs": [
        {
          "internalType": "uint256",
          "name": "tokenId",
          "type": "uint256"
        }
      ],
      "name": "ownerOf",
      "outputs": [
        {
          "internalType": "address",
          "name": "",
          "type": "address"
        }
      ],
      "stateMutability": "view",
      "type": "function"
    },
    {
      "inputs": [
        {
          "internalType": "uint256",
          "name": "tokenId",
          "type": "uint256"
        }
      ],
      "name": "pickRandomFirstWord",
      "outputs": [
        {
          "internalType": "string",
          "name": "",
          "type": "string"
        }
      ],
      "stateMutability": "view",
      "type": "function"
    },
    {
      "inputs": [
        {
          "internalType": "uint256",
          "name": "tokenId",
          "type": "uint256"
        }
      ],
      "name": "pickRandomSecondWord",
      "outputs": [
        {
          "internalType": "string",
          "name": "",
          "type": "string"
        }
      ],
      "stateMutability": "view",
      "type": "function"
    },
    {
      "inputs": [
        {
          "internalType": "uint256",
          "name": "tokenId",
          "type": "uint256"
        }
      ],
      "name": "pickRandomThirdWord",
      "outputs": [
        {
          "internalType": "string",
          "name": "",
          "type": "string"
        }
      ],
      "stateMutability": "view",
      "type": "function"
    },
    {
      "inputs": [
        {
          "internalType": "address",
          "name": "from",
          "type": "address"
        },
        {
          "internalType": "address",
          "name": "to",
          "type": "address"
        },
        {
          "internalType": "uint256",
          "name": "tokenId",
          "type": "uint256"
        }
      ],
      "name": "safeTransferFrom",
      "outputs": [],
      "stateMutability": "nonpayable",
      "type": "function"
    },
    {
      "inputs": [
        {
          "internalType": "address",
          "name": "from",
          "type": "address"
        },
        {
          "internalType": "address",
          "name": "to",
          "type": "address"
        },
        {
          "internalType": "uint256",
          "name": "tokenId",
          "type": "uint256"
        },
        {
          "internalType": "bytes",
          "name": "_data",
          "type": "bytes"
        }
      ],
      "name": "safeTransferFrom",
      "outputs": [],
      "stateMutability": "nonpayable",
      "type": "function"
    },
    {
      "inputs": [
        {
          "internalType": "address",
          "name": "operator",
          "type": "address"
        },
        {
          "internalType": "bool",
          "name": "approved",
          "type": "bool"
        }
      ],
      "name": "setApprovalForAll",
      "outputs": [],
      "stateMutability": "nonpayable",
      "type": "function"
    },
    {
      "inputs": [
        {
          "internalType": "bytes4",
          "name": "interfaceId",
          "type": "bytes4"
        }
      ],
      "name": "supportsInterface",
      "outputs": [
        {
          "internalType": "bool",
          "name": "",
          "type": "bool"
        }
      ],
      "stateMutability": "view",
      "type": "function"
    },
    {
      "inputs": [],
      "name": "symbol",
      "outputs": [
        {
          "internalType": "string",
          "name": "",
          "type": "string"
        }
      ],
      "stateMutability": "view",
      "type": "function"
    },
    {
      "inputs": [
        {
          "internalType": "uint256",
          "name": "tokenId",
          "type": "uint256"
        }
      ],
      "name": "tokenURI",
      "outputs": [
        {
          "internalType": "string",
          "name": "",
          "type": "string"
        }
      ],
      "stateMutability": "view",
      "type": "function"
    },
    {
      "inputs": [
        {
          "internalType": "address",
          "name": "from",
          "type": "address"
        },
        {
          "internalType": "address",
          "name": "to",
          "type": "address"
        },
        {
          "internalType": "uint256",
          "name": "tokenId",
          "type": "uint256"
        }
      ],
      "name": "transferFrom",
      "outputs": [],
      "stateMutability": "nonpayable",
      "type": "function"
    }
  ],
  "bytecode": "0x608060405260405180610160016040528061012f81526020016200447161012f9139600890805190602001906200003892919062000945565b506040518061014001604052806040518060400160405280600781526020017f544f55524953540000000000000000000000000000000000000000000000000081525081526020016040518060400160405280600581526020017f4e4f4d414400000000000000000000000000000000000000000000000000000081525081526020016040518060400160405280600a81526020017f4241434b5041434b45520000000000000000000000000000000000000000000081525081526020016040518060400160405280600881526020017f54524156454c455200000000000000000000000000000000000000000000000081525081526020016040518060400160405280600781526020017f545249505045520000000000000000000000000000000000000000000000000081525081526020016040518060400160405280600c81526020017f474c4f424554524f54544552000000000000000000000000000000000000000081525081526020016040518060400160405280600881526020017f535452414e47455200000000000000000000000000000000000000000000000081525081526020016040518060400160405280600781526020017f4d494752414e540000000000000000000000000000000000000000000000000081525081526020016040518060400160405280600981526020017f534947485453454552000000000000000000000000000000000000000000000081525081526020016040518060400160405280600881526020017f4558504c4f524552000000000000000000000000000000000000000000000000815250815250600990600a620002a3929190620009d6565b506040518061014001604052806040518060400160405280600581526020017f54414b455300000000000000000000000000000000000000000000000000000081525081526020016040518060400160405280600581526020017f475241425300000000000000000000000000000000000000000000000000000081525081526020016040518060400160405280600881526020017f434f4c4c4543545300000000000000000000000000000000000000000000000081525081526020016040518060400160405280600481526020017f474f45530000000000000000000000000000000000000000000000000000000081525081526020016040518060400160405280600781526020017f534543555245530000000000000000000000000000000000000000000000000081525081526020016040518060400160405280600581526020017f475241535000000000000000000000000000000000000000000000000000000081525081526020016040518060400160405280600481526020017f474554530000000000000000000000000000000000000000000000000000000081525081526020016040518060400160405280600781526020017f524543454956450000000000000000000000000000000000000000000000000081525081526020016040518060400160405280600681526020017f414343455054000000000000000000000000000000000000000000000000000081525081526020016040518060400160405280600681526020017f4752414e54530000000000000000000000000000000000000000000000000000815250815250600a90600a6200050e929190620009d6565b506040518061014001604052806040518060400160405280600881526020017f5641434154494f4e00000000000000000000000000000000000000000000000081525081526020016040518060400160405280600d81526020017f474c4f424554524f5454494e470000000000000000000000000000000000000081525081526020016040518060400160405280600781526020017f484f4c494441590000000000000000000000000000000000000000000000000081525081526020016040518060400160405280600781526020017f474554415741590000000000000000000000000000000000000000000000000081525081526020016040518060400160405280600b81526020017f5349474854534545494e4700000000000000000000000000000000000000000081525081526020016040518060400160405280600981526020017f57414e444552494e47000000000000000000000000000000000000000000000081525081526020016040518060400160405280600781526020017f524f414d494e470000000000000000000000000000000000000000000000000081525081526020016040518060400160405280600681526020017f564f59414745000000000000000000000000000000000000000000000000000081525081526020016040518060400160405280600981526020017f455843555253494f4e000000000000000000000000000000000000000000000081525081526020016040518060400160405280600481526020017f5452495000000000000000000000000000000000000000000000000000000000815250815250600b90600a62000779929190620009d6565b503480156200078757600080fd5b506040518060400160405280600c81526020017f5465636b6174696f6e4e465400000000000000000000000000000000000000008152506040518060400160405280600481526020017f54434b520000000000000000000000000000000000000000000000000000000081525081600090805190602001906200080c92919062000945565b5080600190805190602001906200082592919062000945565b505050620008736040518060400160405280601e81526020017f54686973206973206d79204e465420636f6e74726163742e2057686f612100008152506200087960201b620010be1760201c565b62000bf7565b620009198160405160240162000890919062000b0b565b6040516020818303038152906040527f41304fac000000000000000000000000000000000000000000000000000000007bffffffffffffffffffffffffffffffffffffffffffffffffffffffff19166020820180517bffffffffffffffffffffffffffffffffffffffffffffffffffffffff83818316178352505050506200091c60201b60201c565b50565b60008151905060006a636f6e736f6c652e6c6f679050602083016000808483855afa5050505050565b828054620009539062000b81565b90600052602060002090601f016020900481019282620009775760008555620009c3565b82601f106200099257805160ff1916838001178555620009c3565b82800160010185558215620009c3579182015b82811115620009c2578251825591602001919060010190620009a5565b5b509050620009d2919062000a3d565b5090565b82805482825590600052602060002090810192821562000a2a579160200282015b8281111562000a2957825182908051906020019062000a1892919062000945565b5091602001919060010190620009f7565b5b50905062000a39919062000a5c565b5090565b5b8082111562000a5857600081600090555060010162000a3e565b5090565b5b8082111562000a80576000818162000a76919062000a84565b5060010162000a5d565b5090565b50805462000a929062000b81565b6000825580601f1062000aa6575062000ac7565b601f01602090049060005260206000209081019062000ac6919062000a3d565b5b50565b600062000ad78262000b2f565b62000ae3818562000b3a565b935062000af581856020860162000b4b565b62000b008162000be6565b840191505092915050565b6000602082019050818103600083015262000b27818462000aca565b905092915050565b600081519050919050565b600082825260208201905092915050565b60005b8381101562000b6b57808201518184015260208101905062000b4e565b8381111562000b7b576000848401525b50505050565b6000600282049050600182168062000b9a57607f821691505b6020821081141562000bb15762000bb062000bb7565b5b50919050565b7f4e487b7100000000000000000000000000000000000000000000000000000000600052602260045260246000fd5b6000601f19601f8301169050919050565b61386a8062000c076000396000f3fe608060405234801561001057600080fd5b506004361061010b5760003560e01c80636352211e116100a2578063b187301f11610071578063b187301f146102b6578063b88d4fde146102e6578063c575757a14610302578063c87b56dd14610332578063e985e9c5146103625761010b565b80636352211e1461021c57806370a082311461024c57806395d89b411461027c578063a22cb4651461029a5761010b565b80631bc260c4116100de5780631bc260c4146101aa57806323b872dd146101b45780632de38d68146101d057806342842e0e146102005761010b565b806301ffc9a71461011057806306fdde0314610140578063081812fc1461015e578063095ea7b31461018e575b600080fd5b61012a600480360381019061012591906124be565b610392565b60405161013791906130e0565b60405180910390f35b610148610474565b60405161015591906130fb565b60405180910390f35b61017860048036038101906101739190612510565b610506565b6040516101859190613050565b60405180910390f35b6101a860048036038101906101a39190612482565b61058b565b005b6101b26106a3565b005b6101ce60048036038101906101c9919061237c565b61088a565b005b6101ea60048036038101906101e59190612510565b6108ea565b6040516101f791906130fb565b60405180910390f35b61021a6004803603810190610215919061237c565b610a08565b005b61023660048036038101906102319190612510565b610a28565b6040516102439190613050565b60405180910390f35b61026660048036038101906102619190612317565b610ada565b604051610273919061335b565b60405180910390f35b610284610b92565b60405161029191906130fb565b60405180910390f35b6102b460048036038101906102af9190612446565b610c24565b005b6102d060048036038101906102cb9190612510565b610c3a565b6040516102dd91906130fb565b60405180910390f35b61030060048036038101906102fb91906123cb565b610d58565b005b61031c60048036038101906103179190612510565b610dba565b60405161032991906130fb565b60405180910390f35b61034c60048036038101906103479190612510565b610ed8565b60405161035991906130fb565b60405180910390f35b61037c60048036038101906103779190612340565b61102a565b60405161038991906130e0565b60405180910390f35b60007f80ac58cd000000000000000000000000000000000000000000000000000000007bffffffffffffffffffffffffffffffffffffffffffffffffffffffff1916827bffffffffffffffffffffffffffffffffffffffffffffffffffffffff1916148061045d57507f5b5e139f000000000000000000000000000000000000000000000000000000007bffffffffffffffffffffffffffffffffffffffffffffffffffffffff1916827bffffffffffffffffffffffffffffffffffffffffffffffffffffffff1916145b8061046d575061046c82611157565b5b9050919050565b606060008054610483906135fa565b80601f01602080910402602001604051908101604052809291908181526020018280546104af906135fa565b80156104fc5780601f106104d1576101008083540402835291602001916104fc565b820191906000526020600020905b8154815290600101906020018083116104df57829003601f168201915b5050505050905090565b6000610511826111c1565b610550576040517f08c379a0000000000000000000000000000000000000000000000000000000008152600401610547906132bb565b60405180910390fd5b6004600083815260200190815260200160002060009054906101000a900473ffffffffffffffffffffffffffffffffffffffff169050919050565b600061059682610a28565b90508073ffffffffffffffffffffffffffffffffffffffff168373ffffffffffffffffffffffffffffffffffffffff161415610607576040517f08c379a00000000000000000000000000000000000000000000000000000000081526004016105fe9061331b565b60405180910390fd5b8073ffffffffffffffffffffffffffffffffffffffff1661062661122d565b73ffffffffffffffffffffffffffffffffffffffff16148061065557506106548161064f61122d565b61102a565b5b610694576040517f08c379a000000000000000000000000000000000000000000000000000000000815260040161068b906131fb565b60405180910390fd5b61069e8383611235565b505050565b60006106af60076112ee565b905060006106bc826108ea565b905060006106c983610c3a565b905060006106d684610dba565b905060008383836040516020016106ef93929190612f23565b60405160208183030381529060405290506000600882604051602001610716929190612f54565b6040516020818303038152906040529050600061075b83610736846112fc565b604051602001610747929190612fc7565b6040516020818303038152906040526112fc565b9050600081604051602001610770919061302e565b60405160208183030381529060405290506107bf6040518060400160405280601581526020017f0a2d2d2d2d2d2d2d2d2d2d2d2d2d2d2d2d2d2d2d2d00000000000000000000008152506110be565b6107c8816110be565b6108066040518060400160405280601581526020017f2d2d2d2d2d2d2d2d2d2d2d2d2d2d2d2d2d2d2d2d0a00000000000000000000008152506110be565b61081033896114ba565b61081a88826114d8565b610824600761154c565b6108476040518060600160405280602581526020016137d0602591398933611562565b7f6b4130eb32e9844edfacbd61e470e160dd6c70382ed55090d9d59041894817cd33896040516108789291906130b7565b60405180910390a15050505050505050565b61089b61089561122d565b82611601565b6108da576040517f08c379a00000000000000000000000000000000000000000000000000000000081526004016108d19061333b565b60405180910390fd5b6108e58383836116df565b505050565b6060600061091e6108fa8461193b565b60405160200161090a919061300c565b604051602081830303815290604052611ae8565b9050600980549050816109319190613675565b90506009818154811061096d577f4e487b7100000000000000000000000000000000000000000000000000000000600052603260045260246000fd5b906000526020600020018054610982906135fa565b80601f01602080910402602001604051908101604052809291908181526020018280546109ae906135fa565b80156109fb5780601f106109d0576101008083540402835291602001916109fb565b820191906000526020600020905b8154815290600101906020018083116109de57829003601f168201915b5050505050915050919050565b610a2383838360405180602001604052806000815250610d58565b505050565b6000806002600084815260200190815260200160002060009054906101000a900473ffffffffffffffffffffffffffffffffffffffff169050600073ffffffffffffffffffffffffffffffffffffffff168173ffffffffffffffffffffffffffffffffffffffff161415610ad1576040517f08c379a0000000000000000000000000000000000000000000000000000000008152600401610ac89061323b565b60405180910390fd5b80915050919050565b60008073ffffffffffffffffffffffffffffffffffffffff168273ffffffffffffffffffffffffffffffffffffffff161415610b4b576040517f08c379a0000000000000000000000000000000000000000000000000000000008152600401610b429061321b565b60405180910390fd5b600360008373ffffffffffffffffffffffffffffffffffffffff1673ffffffffffffffffffffffffffffffffffffffff168152602001908152602001600020549050919050565b606060018054610ba1906135fa565b80601f0160208091040260200160405190810160405280929190818152602001828054610bcd906135fa565b8015610c1a5780601f10610bef57610100808354040283529160200191610c1a565b820191906000526020600020905b815481529060010190602001808311610bfd57829003601f168201915b5050505050905090565b610c36610c2f61122d565b8383611b1b565b5050565b60606000610c6e610c4a8461193b565b604051602001610c5a9190612fa5565b604051602081830303815290604052611ae8565b9050600a8054905081610c819190613675565b9050600a8181548110610cbd577f4e487b7100000000000000000000000000000000000000000000000000000000600052603260045260246000fd5b906000526020600020018054610cd2906135fa565b80601f0160208091040260200160405190810160405280929190818152602001828054610cfe906135fa565b8015610d4b5780601f10610d2057610100808354040283529160200191610d4b565b820191906000526020600020905b815481529060010190602001808311610d2e57829003601f168201915b5050505050915050919050565b610d69610d6361122d565b83611601565b610da8576040517f08c379a0000000000000000000000000000000000000000000000000000000008152600401610d9f9061333b565b60405180910390fd5b610db484848484611c88565b50505050565b60606000610dee610dca8461193b565b604051602001610dda9190612f83565b604051602081830303815290604052611ae8565b9050600b8054905081610e019190613675565b9050600b8181548110610e3d577f4e487b7100000000000000000000000000000000000000000000000000000000600052603260045260246000fd5b906000526020600020018054610e52906135fa565b80601f0160208091040260200160405190810160405280929190818152602001828054610e7e906135fa565b8015610ecb5780601f10610ea057610100808354040283529160200191610ecb565b820191906000526020600020905b815481529060010190602001808311610eae57829003601f168201915b5050505050915050919050565b6060610ee3826111c1565b610f22576040517f08c379a0000000000000000000000000000000000000000000000000000000008152600401610f199061329b565b60405180910390fd5b6000600660008481526020019081526020016000208054610f42906135fa565b80601f0160208091040260200160405190810160405280929190818152602001828054610f6e906135fa565b8015610fbb5780601f10610f9057610100808354040283529160200191610fbb565b820191906000526020600020905b815481529060010190602001808311610f9e57829003601f168201915b505050505090506000610fcc611ce4565b9050600081511415610fe2578192505050611025565b600082511115611017578082604051602001610fff929190612eff565b60405160208183030381529060405292505050611025565b61102084611cfb565b925050505b919050565b6000600560008473ffffffffffffffffffffffffffffffffffffffff1673ffffffffffffffffffffffffffffffffffffffff16815260200190815260200160002060008373ffffffffffffffffffffffffffffffffffffffff1673ffffffffffffffffffffffffffffffffffffffff16815260200190815260200160002060009054906101000a900460ff16905092915050565b611154816040516024016110d291906130fb565b6040516020818303038152906040527f41304fac000000000000000000000000000000000000000000000000000000007bffffffffffffffffffffffffffffffffffffffffffffffffffffffff19166020820180517bffffffffffffffffffffffffffffffffffffffffffffffffffffffff8381831617835250505050611da2565b50565b60007f01ffc9a7000000000000000000000000000000000000000000000000000000007bffffffffffffffffffffffffffffffffffffffffffffffffffffffff1916827bffffffffffffffffffffffffffffffffffffffffffffffffffffffff1916149050919050565b60008073ffffffffffffffffffffffffffffffffffffffff166002600084815260200190815260200160002060009054906101000a900473ffffffffffffffffffffffffffffffffffffffff1673ffffffffffffffffffffffffffffffffffffffff1614159050919050565b600033905090565b816004600083815260200190815260200160002060006101000a81548173ffffffffffffffffffffffffffffffffffffffff021916908373ffffffffffffffffffffffffffffffffffffffff160217905550808273ffffffffffffffffffffffffffffffffffffffff166112a883610a28565b73ffffffffffffffffffffffffffffffffffffffff167f8c5be1e5ebec7d5bd14f71427d1e84f3dd0314c0f7b2291e5b200ac8c7c3b92560405160405180910390a45050565b600081600001549050919050565b6060600082519050600081141561132557604051806020016040528060008152509150506114b5565b60006003600283611336919061342f565b6113409190613485565b600461134c91906134b6565b9050600060208261135d919061342f565b67ffffffffffffffff81111561139c577f4e487b7100000000000000000000000000000000000000000000000000000000600052604160045260246000fd5b6040519080825280601f01601f1916602001820160405280156113ce5781602001600182028036833780820191505090505b50905060006040518060600160405280604081526020016137f5604091399050600181016020830160005b868110156114725760038101905062ffffff818a015116603f8160121c168401518060081b905060ff603f83600c1c1686015116810190508060081b905060ff603f8360061c1686015116810190508060081b905060ff603f831686015116810190508060e01b905080845260048401935050506113f9565b50600386066001811461148c576002811461149c576114a7565b613d3d60f01b60028303526114a7565b603d60f81b60018303525b508484525050819450505050505b919050565b6114d4828260405180602001604052806000815250611dcb565b5050565b6114e1826111c1565b611520576040517f08c379a00000000000000000000000000000000000000000000000000000000081526004016115179061325b565b60405180910390fd5b806006600084815260200190815260200160002090805190602001906115479291906121a3565b505050565b6001816000016000828254019250508190555050565b6115fc83838360405160240161157a9392919061311d565b6040516020818303038152906040527fe3849f79000000000000000000000000000000000000000000000000000000007bffffffffffffffffffffffffffffffffffffffffffffffffffffffff19166020820180517bffffffffffffffffffffffffffffffffffffffffffffffffffffffff8381831617835250505050611da2565b505050565b600061160c826111c1565b61164b576040517f08c379a0000000000000000000000000000000000000000000000000000000008152600401611642906131db565b60405180910390fd5b600061165683610a28565b90508073ffffffffffffffffffffffffffffffffffffffff168473ffffffffffffffffffffffffffffffffffffffff1614806116c557508373ffffffffffffffffffffffffffffffffffffffff166116ad84610506565b73ffffffffffffffffffffffffffffffffffffffff16145b806116d657506116d5818561102a565b5b91505092915050565b8273ffffffffffffffffffffffffffffffffffffffff166116ff82610a28565b73ffffffffffffffffffffffffffffffffffffffff1614611755576040517f08c379a000000000000000000000000000000000000000000000000000000000815260040161174c906132db565b60405180910390fd5b600073ffffffffffffffffffffffffffffffffffffffff168273ffffffffffffffffffffffffffffffffffffffff1614156117c5576040517f08c379a00000000000000000000000000000000000000000000000000000000081526004016117bc9061319b565b60405180910390fd5b6117d0838383611e26565b6117db600082611235565b6001600360008573ffffffffffffffffffffffffffffffffffffffff1673ffffffffffffffffffffffffffffffffffffffff168152602001908152602001600020600082825461182b9190613510565b925050819055506001600360008473ffffffffffffffffffffffffffffffffffffffff1673ffffffffffffffffffffffffffffffffffffffff1681526020019081526020016000206000828254611882919061342f565b92505081905550816002600083815260200190815260200160002060006101000a81548173ffffffffffffffffffffffffffffffffffffffff021916908373ffffffffffffffffffffffffffffffffffffffff160217905550808273ffffffffffffffffffffffffffffffffffffffff168473ffffffffffffffffffffffffffffffffffffffff167fddf252ad1be2c89b69c2b068fc378daa952ba7f163c4a11628f55a4df523b3ef60405160405180910390a4505050565b60606000821415611983576040518060400160405280600181526020017f30000000000000000000000000000000000000000000000000000000000000008152509050611ae3565b600082905060005b600082146119b557808061199e9061362c565b915050600a826119ae9190613485565b915061198b565b60008167ffffffffffffffff8111156119f7577f4e487b7100000000000000000000000000000000000000000000000000000000600052604160045260246000fd5b6040519080825280601f01601f191660200182016040528015611a295781602001600182028036833780820191505090505b5090505b60008514611adc57600182611a429190613510565b9150600a85611a519190613675565b6030611a5d919061342f565b60f81b818381518110611a99577f4e487b7100000000000000000000000000000000000000000000000000000000600052603260045260246000fd5b60200101907effffffffffffffffffffffffffffffffffffffffffffffffffffffffffffff1916908160001a905350600a85611ad59190613485565b9450611a2d565b8093505050505b919050565b600081604051602001611afb9190612ee8565b6040516020818303038152906040528051906020012060001c9050919050565b8173ffffffffffffffffffffffffffffffffffffffff168373ffffffffffffffffffffffffffffffffffffffff161415611b8a576040517f08c379a0000000000000000000000000000000000000000000000000000000008152600401611b81906131bb565b60405180910390fd5b80600560008573ffffffffffffffffffffffffffffffffffffffff1673ffffffffffffffffffffffffffffffffffffffff16815260200190815260200160002060008473ffffffffffffffffffffffffffffffffffffffff1673ffffffffffffffffffffffffffffffffffffffff16815260200190815260200160002060006101000a81548160ff0219169083151502179055508173ffffffffffffffffffffffffffffffffffffffff168373ffffffffffffffffffffffffffffffffffffffff167f17307eab39ab6107e8899845ad3d59bd9653f200f220920489ca2b5937696c3183604051611c7b91906130e0565b60405180910390a3505050565b611c938484846116df565b611c9f84848484611e2b565b611cde576040517f08c379a0000000000000000000000000000000000000000000000000000000008152600401611cd59061315b565b60405180910390fd5b50505050565b606060405180602001604052806000815250905090565b6060611d06826111c1565b611d45576040517f08c379a0000000000000000000000000000000000000000000000000000000008152600401611d3c906132fb565b60405180910390fd5b6000611d4f611ce4565b90506000815111611d6f5760405180602001604052806000815250611d9a565b80611d798461193b565b604051602001611d8a929190612eff565b6040516020818303038152906040525b915050919050565b60008151905060006a636f6e736f6c652e6c6f679050602083016000808483855afa5050505050565b611dd58383611fc2565b611de26000848484611e2b565b611e21576040517f08c379a0000000000000000000000000000000000000000000000000000000008152600401611e189061315b565b60405180910390fd5b505050565b505050565b6000611e4c8473ffffffffffffffffffffffffffffffffffffffff16612190565b15611fb5578373ffffffffffffffffffffffffffffffffffffffff1663150b7a02611e7561122d565b8786866040518563ffffffff1660e01b8152600401611e97949392919061306b565b602060405180830381600087803b158015611eb157600080fd5b505af1925050508015611ee257506040513d601f19601f82011682018060405250810190611edf91906124e7565b60015b611f65573d8060008114611f12576040519150601f19603f3d011682016040523d82523d6000602084013e611f17565b606091505b50600081511415611f5d576040517f08c379a0000000000000000000000000000000000000000000000000000000008152600401611f549061315b565b60405180910390fd5b805181602001fd5b63150b7a0260e01b7bffffffffffffffffffffffffffffffffffffffffffffffffffffffff1916817bffffffffffffffffffffffffffffffffffffffffffffffffffffffff191614915050611fba565b600190505b949350505050565b600073ffffffffffffffffffffffffffffffffffffffff168273ffffffffffffffffffffffffffffffffffffffff161415612032576040517f08c379a00000000000000000000000000000000000000000000000000000000081526004016120299061327b565b60405180910390fd5b61203b816111c1565b1561207b576040517f08c379a00000000000000000000000000000000000000000000000000000000081526004016120729061317b565b60405180910390fd5b61208760008383611e26565b6001600360008473ffffffffffffffffffffffffffffffffffffffff1673ffffffffffffffffffffffffffffffffffffffff16815260200190815260200160002060008282546120d7919061342f565b92505081905550816002600083815260200190815260200160002060006101000a81548173ffffffffffffffffffffffffffffffffffffffff021916908373ffffffffffffffffffffffffffffffffffffffff160217905550808273ffffffffffffffffffffffffffffffffffffffff16600073ffffffffffffffffffffffffffffffffffffffff167fddf252ad1be2c89b69c2b068fc378daa952ba7f163c4a11628f55a4df523b3ef60405160405180910390a45050565b600080823b905060008111915050919050565b8280546121af906135fa565b90600052602060002090601f0160209004810192826121d15760008555612218565b82601f106121ea57805160ff1916838001178555612218565b82800160010185558215612218579182015b828111156122175782518255916020019190600101906121fc565b5b5090506122259190612229565b5090565b5b8082111561224257600081600090555060010161222a565b5090565b6000612259612254846133a7565b613376565b90508281526020810184848401111561227157600080fd5b61227c8482856135b8565b509392505050565b60008135905061229381613773565b92915050565b6000813590506122a88161378a565b92915050565b6000813590506122bd816137a1565b92915050565b6000815190506122d2816137a1565b92915050565b600082601f8301126122e957600080fd5b81356122f9848260208601612246565b91505092915050565b600081359050612311816137b8565b92915050565b60006020828403121561232957600080fd5b600061233784828501612284565b91505092915050565b6000806040838503121561235357600080fd5b600061236185828601612284565b925050602061237285828601612284565b9150509250929050565b60008060006060848603121561239157600080fd5b600061239f86828701612284565b93505060206123b086828701612284565b92505060406123c186828701612302565b9150509250925092565b600080600080608085870312156123e157600080fd5b60006123ef87828801612284565b945050602061240087828801612284565b935050604061241187828801612302565b925050606085013567ffffffffffffffff81111561242e57600080fd5b61243a878288016122d8565b91505092959194509250565b6000806040838503121561245957600080fd5b600061246785828601612284565b925050602061247885828601612299565b9150509250929050565b6000806040838503121561249557600080fd5b60006124a385828601612284565b92505060206124b485828601612302565b9150509250929050565b6000602082840312156124d057600080fd5b60006124de848285016122ae565b91505092915050565b6000602082840312156124f957600080fd5b6000612507848285016122c3565b91505092915050565b60006020828403121561252257600080fd5b600061253084828501612302565b91505092915050565b61254281613544565b82525050565b61255181613556565b82525050565b6000612562826133ec565b61256c8185613402565b935061257c8185602086016135c7565b61258581613762565b840191505092915050565b600061259b826133f7565b6125a58185613413565b93506125b58185602086016135c7565b6125be81613762565b840191505092915050565b60006125d4826133f7565b6125de8185613424565b93506125ee8185602086016135c7565b80840191505092915050565b60008154612607816135fa565b6126118186613424565b9450600182166000811461262c576001811461263d57612670565b60ff19831686528186019350612670565b612646856133d7565b60005b8381101561266857815481890152600182019150602081019050612649565b838801955050505b50505092915050565b6000612686603283613413565b91507f4552433732313a207472616e7366657220746f206e6f6e20455243373231526560008301527f63656976657220696d706c656d656e74657200000000000000000000000000006020830152604082019050919050565b60006126ec601c83613413565b91507f4552433732313a20746f6b656e20616c7265616479206d696e746564000000006000830152602082019050919050565b600061272c600a83613424565b91507f54484952445f574f5244000000000000000000000000000000000000000000006000830152600a82019050919050565b600061276c602483613413565b91507f4552433732313a207472616e7366657220746f20746865207a65726f2061646460008301527f72657373000000000000000000000000000000000000000000000000000000006020830152604082019050919050565b60006127d2601983613413565b91507f4552433732313a20617070726f766520746f2063616c6c6572000000000000006000830152602082019050919050565b6000612812606383613424565b91507f222c20226465736372697074696f6e223a20224120686967686c79206163636c60008301527f61696d656420636f6c6c656374696f6e206f6620737175617265732e222c202260208301527f696d616765223a2022646174613a696d6167652f7376672b786d6c3b6261736560408301527f36342c00000000000000000000000000000000000000000000000000000000006060830152606382019050919050565b60006128c4600b83613424565b91507f5345434f4e445f574f52440000000000000000000000000000000000000000006000830152600b82019050919050565b6000612904602c83613413565b91507f4552433732313a206f70657261746f7220717565727920666f72206e6f6e657860008301527f697374656e7420746f6b656e00000000000000000000000000000000000000006020830152604082019050919050565b600061296a600d83613424565b91507f3c2f746578743e3c2f7376673e000000000000000000000000000000000000006000830152600d82019050919050565b60006129aa603883613413565b91507f4552433732313a20617070726f76652063616c6c6572206973206e6f74206f7760008301527f6e6572206e6f7220617070726f76656420666f7220616c6c00000000000000006020830152604082019050919050565b6000612a10602a83613413565b91507f4552433732313a2062616c616e636520717565727920666f7220746865207a6560008301527f726f2061646472657373000000000000000000000000000000000000000000006020830152604082019050919050565b6000612a76602983613413565b91507f4552433732313a206f776e657220717565727920666f72206e6f6e657869737460008301527f656e7420746f6b656e00000000000000000000000000000000000000000000006020830152604082019050919050565b6000612adc602e83613413565b91507f45524337323155524953746f726167653a2055524920736574206f66206e6f6e60008301527f6578697374656e7420746f6b656e0000000000000000000000000000000000006020830152604082019050919050565b6000612b42600283613424565b91507f227d0000000000000000000000000000000000000000000000000000000000006000830152600282019050919050565b6000612b82602083613413565b91507f4552433732313a206d696e7420746f20746865207a65726f20616464726573736000830152602082019050919050565b6000612bc2603183613413565b91507f45524337323155524953746f726167653a2055524920717565727920666f722060008301527f6e6f6e6578697374656e7420746f6b656e0000000000000000000000000000006020830152604082019050919050565b6000612c28602c83613413565b91507f4552433732313a20617070726f76656420717565727920666f72206e6f6e657860008301527f697374656e7420746f6b656e00000000000000000000000000000000000000006020830152604082019050919050565b6000612c8e602983613413565b91507f4552433732313a207472616e73666572206f6620746f6b656e2074686174206960008301527f73206e6f74206f776e00000000000000000000000000000000000000000000006020830152604082019050919050565b6000612cf4602f83613413565b91507f4552433732314d657461646174613a2055524920717565727920666f72206e6f60008301527f6e6578697374656e7420746f6b656e00000000000000000000000000000000006020830152604082019050919050565b6000612d5a600a83613424565b91507f7b226e616d65223a2022000000000000000000000000000000000000000000006000830152600a82019050919050565b6000612d9a602183613413565b91507f4552433732313a20617070726f76616c20746f2063757272656e74206f776e6560008301527f72000000000000000000000000000000000000000000000000000000000000006020830152604082019050919050565b6000612e00600a83613424565b91507f46495253545f574f5244000000000000000000000000000000000000000000006000830152600a82019050919050565b6000612e40601d83613424565b91507f646174613a6170706c69636174696f6e2f6a736f6e3b6261736536342c0000006000830152601d82019050919050565b6000612e80603183613413565b91507f4552433732313a207472616e736665722063616c6c6572206973206e6f74206f60008301527f776e6572206e6f7220617070726f7665640000000000000000000000000000006020830152604082019050919050565b612ee2816135ae565b82525050565b6000612ef482846125c9565b915081905092915050565b6000612f0b82856125c9565b9150612f1782846125c9565b91508190509392505050565b6000612f2f82866125c9565b9150612f3b82856125c9565b9150612f4782846125c9565b9150819050949350505050565b6000612f6082856125fa565b9150612f6c82846125c9565b9150612f778261295d565b91508190509392505050565b6000612f8e8261271f565b9150612f9a82846125c9565b915081905092915050565b6000612fb0826128b7565b9150612fbc82846125c9565b915081905092915050565b6000612fd282612d4d565b9150612fde82856125c9565b9150612fe982612805565b9150612ff582846125c9565b915061300082612b35565b91508190509392505050565b600061301782612df3565b915061302382846125c9565b915081905092915050565b600061303982612e33565b915061304582846125c9565b915081905092915050565b60006020820190506130656000830184612539565b92915050565b60006080820190506130806000830187612539565b61308d6020830186612539565b61309a6040830185612ed9565b81810360608301526130ac8184612557565b905095945050505050565b60006040820190506130cc6000830185612539565b6130d96020830184612ed9565b9392505050565b60006020820190506130f56000830184612548565b92915050565b600060208201905081810360008301526131158184612590565b905092915050565b600060608201905081810360008301526131378186612590565b90506131466020830185612ed9565b6131536040830184612539565b949350505050565b6000602082019050818103600083015261317481612679565b9050919050565b60006020820190508181036000830152613194816126df565b9050919050565b600060208201905081810360008301526131b48161275f565b9050919050565b600060208201905081810360008301526131d4816127c5565b9050919050565b600060208201905081810360008301526131f4816128f7565b9050919050565b600060208201905081810360008301526132148161299d565b9050919050565b6000602082019050818103600083015261323481612a03565b9050919050565b6000602082019050818103600083015261325481612a69565b9050919050565b6000602082019050818103600083015261327481612acf565b9050919050565b6000602082019050818103600083015261329481612b75565b9050919050565b600060208201905081810360008301526132b481612bb5565b9050919050565b600060208201905081810360008301526132d481612c1b565b9050919050565b600060208201905081810360008301526132f481612c81565b9050919050565b6000602082019050818103600083015261331481612ce7565b9050919050565b6000602082019050818103600083015261333481612d8d565b9050919050565b6000602082019050818103600083015261335481612e73565b9050919050565b60006020820190506133706000830184612ed9565b92915050565b6000604051905081810181811067ffffffffffffffff8211171561339d5761339c613733565b5b8060405250919050565b600067ffffffffffffffff8211156133c2576133c1613733565b5b601f19601f8301169050602081019050919050565b60008190508160005260206000209050919050565b600081519050919050565b600081519050919050565b600082825260208201905092915050565b600082825260208201905092915050565b600081905092915050565b600061343a826135ae565b9150613445836135ae565b9250827fffffffffffffffffffffffffffffffffffffffffffffffffffffffffffffffff0382111561347a576134796136a6565b5b828201905092915050565b6000613490826135ae565b915061349b836135ae565b9250826134ab576134aa6136d5565b5b828204905092915050565b60006134c1826135ae565b91506134cc836135ae565b9250817fffffffffffffffffffffffffffffffffffffffffffffffffffffffffffffffff0483118215151615613505576135046136a6565b5b828202905092915050565b600061351b826135ae565b9150613526836135ae565b925082821015613539576135386136a6565b5b828203905092915050565b600061354f8261358e565b9050919050565b60008115159050919050565b60007fffffffff0000000000000000000000000000000000000000000000000000000082169050919050565b600073ffffffffffffffffffffffffffffffffffffffff82169050919050565b6000819050919050565b82818337600083830152505050565b60005b838110156135e55780820151818401526020810190506135ca565b838111156135f4576000848401525b50505050565b6000600282049050600182168061361257607f821691505b6020821081141561362657613625613704565b5b50919050565b6000613637826135ae565b91507fffffffffffffffffffffffffffffffffffffffffffffffffffffffffffffffff82141561366a576136696136a6565b5b600182019050919050565b6000613680826135ae565b915061368b836135ae565b92508261369b5761369a6136d5565b5b828206905092915050565b7f4e487b7100000000000000000000000000000000000000000000000000000000600052601160045260246000fd5b7f4e487b7100000000000000000000000000000000000000000000000000000000600052601260045260246000fd5b7f4e487b7100000000000000000000000000000000000000000000000000000000600052602260045260246000fd5b7f4e487b7100000000000000000000000000000000000000000000000000000000600052604160045260246000fd5b6000601f19601f8301169050919050565b61377c81613544565b811461378757600080fd5b50565b61379381613556565b811461379e57600080fd5b50565b6137aa81613562565b81146137b557600080fd5b50565b6137c1816135ae565b81146137cc57600080fd5b5056fe416e204e465420772f20494420257320686173206265656e206d696e74656420746f2025734142434445464748494a4b4c4d4e4f505152535455565758595a6162636465666768696a6b6c6d6e6f707172737475767778797a303132333435363738392b2fa2646970667358221220b7126357deb32d522885c7d4a140582964a3f54ffc629f65696ab25b90be889f64736f6c634300080000333c73766720786d6c6e733d27687474703a2f2f7777772e77332e6f72672f323030302f73766727207072657365727665417370656374526174696f3d27784d696e594d696e206d656574272076696577426f783d273020302033353020333530273e3c7374796c653e2e62617365207b2066696c6c3a2077686974653b20666f6e742d66616d696c793a2073657269663b20666f6e742d73697a653a20323470783b207d3c2f7374796c653e3c726563742077696474683d273130302527206865696768743d2731303025272066696c6c3d27626c61636b27202f3e3c7465787420783d273530252720793d273530252720636c6173733d27626173652720646f6d696e616e742d626173656c696e653d276d6964646c652720746578742d616e63686f723d276d6964646c65273e",
  "linkReferences": {},
  "deployedLinkReferences": {}
}